{
  "transactions": [
    {
      "hash": "0xd8d7fff5754cba767351a94c09386ea6d91c071519ffb08bf41e775ef5706437",
      "transactionType": "CALL",
      "contractName": null,
      "contractAddress": "0xb0337d82f4b94c8d2a0bedc39eb0d5737a6a1133",
      "function": "mintNft(string)",
      "arguments": [
        "\"ipfs://bafybeig37ioir76s7mg5oobetncojcm3c3hxasyd4rvid4jqhy4gkaheg4/?filename=0-PUG.json\""
      ],
      "transaction": {
        "from": "0x2b7a3e2e47ed1030a519d52806fc07b8810904f2",
        "to": "0xb0337d82f4b94c8d2a0bedc39eb0d5737a6a1133",
        "gas": "0x31d9d",
        "value": "0x0",
        "input": "0xda86f4a900000000000000000000000000000000000000000000000000000000000000200000000000000000000000000000000000000000000000000000000000000057697066733a2f2f62616679626569673337696f6972373673376d67356f6f6265746e636f6a636d3363336878617379643472766964346a71687934676b61686567342f3f66696c656e616d653d302d5055472e6a736f6e000000000000000000",
        "nonce": "0x17",
        "chainId": "0x14a34"
      },
      "additionalContracts": [],
      "isFixedGasLimit": false
    }
  ],
  "receipts": [
    {
      "status": "0x1",
      "cumulativeGasUsed": "0x161e52",
      "logs": [
        {
          "address": "0xb0337d82f4b94c8d2a0bedc39eb0d5737a6a1133",
          "topics": [
            "0xddf252ad1be2c89b69c2b068fc378daa952ba7f163c4a11628f55a4df523b3ef",
            "0x0000000000000000000000000000000000000000000000000000000000000000",
            "0x0000000000000000000000002b7a3e2e47ed1030a519d52806fc07b8810904f2",
            "0x0000000000000000000000000000000000000000000000000000000000000003"
          ],
          "data": "0x",
          "blockHash": "0xd0dd888e5ca534284eae9222e58950db744911c40ed22b9032331ce2d5f18be1",
          "blockNumber": "0xd455a4",
          "transactionHash": "0xd8d7fff5754cba767351a94c09386ea6d91c071519ffb08bf41e775ef5706437",
          "transactionIndex": "0x5",
          "logIndex": "0x23",
          "removed": false
        }
      ],
      "logsBloom": "0x00000000000000000000000000000000000000000000000000000000000000000000000000000000000000000000000000000000020000000000000000000000000000000000000000000008000000000004000000000000000000000000000000000000020000000000000000000800000000000000000000000012000000000000000000000000001000000040000000000000000000000000000000000000000000000000000000000000000000000000000000800000000000000000400000000002000000000000000000000000000000000000000002000000000020000000000000000000000000000000000000000000000000000000000000000000",
      "type": "0x2",
      "transactionHash": "0xd8d7fff5754cba767351a94c09386ea6d91c071519ffb08bf41e775ef5706437",
      "transactionIndex": "0x5",
      "blockHash": "0xd0dd888e5ca534284eae9222e58950db744911c40ed22b9032331ce2d5f18be1",
      "blockNumber": "0xd455a4",
      "gasUsed": "0x24176",
      "effectiveGasPrice": "0x10ca28",
      "from": "0x2b7a3e2e47ed1030a519d52806fc07b8810904f2",
      "to": "0xb0337d82f4b94c8d2a0bedc39eb0d5737a6a1133",
      "contractAddress": null,
      "l1BaseFeeScalar": "0x44d",
      "l1BlobBaseFee": "0x1",
      "l1BlobBaseFeeScalar": "0xa118b",
      "l1Fee": "0xc8d4cbd9",
      "l1GasPrice": "0x4d658309",
      "l1GasUsed": "0x934"
    }
  ],
  "libraries": [],
  "pending": [],
  "returns": {},
  "timestamp": 1723599406,
  "chain": 84532,
  "commit": "eb11e99"
}